{
  "contractName": "HelloWorld",
  "abi": [
    {
      "constant": true,
      "inputs": [],
      "name": "hello",
      "outputs": [
        {
          "internalType": "string",
          "name": "",
          "type": "string"
        }
      ],
      "payable": false,
      "stateMutability": "pure",
      "type": "function"
    },
    {
      "constant": true,
      "inputs": [],
      "name": "hello2",
      "outputs": [
        {
          "internalType": "string",
          "name": "",
          "type": "string"
        }
      ],
      "payable": false,
      "stateMutability": "pure",
      "type": "function"
    }
  ],
  "bytecode": "0x608060405234801561001057600080fd5b5061013f806100206000396000f3fe608060405234801561001057600080fd5b50600436106100365760003560e01c8063011afdd71461003b57806319ff1d21146100b8575b600080fd5b6100436100c0565b6040805160208082528351818301528351919283929083019185019080838360005b8381101561007d578181015183820152602001610065565b50505050905090810190601f1680156100aa5780820380516001836020036101000a031916815260200191505b509250505060405180910390f35b6100436100e5565b60408051808201909152600b81526a48656c6c6f20506f6c6c7960a81b602082015290565b60408051808201909152600b81526a12195b1b1bc815dbdc9b1960aa1b60208201529056fea265627a7a7231582052d5cefa0ac227ce6559889286a30a3c25709b43957b3f88b1d536f27a530d8464736f6c63430005100032",
  "source": "pragma solidity ^0.5.16;\r\n\r\ncontract HelloWorld {\r\n\r\n    function hello() public pure returns(string memory) {\r\n        return 'Hello World';\r\n    }\r\n    //estas funciones se llaman desde el html\r\n    function hello2() public pure returns(string memory) {\r\n        return 'Hello Polly';\r\n    }\r\n}",
  "sourcePath": "C:\\Users\\Paola\\GIT_PROJECTS\\blkchn_test\\Hello-World\\contracts\\HelloWorld.sol",
  "compiler": {
    "name": "solc",
    "version": "0.5.16+commit.9c3226ce.Emscripten.clang"
  },
  "schemaVersion": "3.0.23",
  "updatedAt": "2020-04-08T22:48:21.929Z",
  "networkType": "ethereum",
  "devdoc": {
    "methods": {}
  },
  "userdoc": {
    "methods": {}
  }
}